:0400000500000A816C
:020000040000FA
:1000000000040020810A000015070000610A0000BA
:100010001F07000029070000330700000000000050
:10002000000000000000000000000000A50A000021
:100030003D070000000000004707000051070000D6
:100040005B070000650700006F07000079070000EC
:10005000830700008D07000097070000A10700003C
:10006000AB070000B5070000BF070000C90700008C
:10007000D3070000DD070000E7070000F1070000DC
:10008000FB070000050800000F0800001908000029
:10009000230800002D080000370800004108000078
:1000A0004B080000550800005F08000069080000C8
:1000B000730800007D080000870800009108000018
:1000C0009B080000A5080000AF080000B908000068
:1000D000C3080000CD080000D7080000E1080000B8
:1000E000EB080000F5080000FF0800000909000007
:1000F000130900001D090000270900003109000054
:100100003B0900001FB500F003F88DE80F001FBD8C
:1001100000F0ACBC40F6FC7108684FF01022401CA7
:1001200008D00868401C09D00868401C04D0086842
:1001300000F037BA9069F5E79069F9E7704770B554
:100140000B46010B184400F6FF70040B4FF0805073
:100150000022090303692403406943431D1B104621
:1001600000F048FA29462046BDE8704000F042BA47
:10017000F0B54FF6FF734FF4B4751A466E1E11E0DA
:10018000A94201D3344600E00C46091B30F8027B3B
:10019000641E3B441A44F9D19CB204EB134394B25D
:1001A00004EB12420029EBD198B200EB134002EBB2
:1001B000124140EA0140F0BDF34992B00446D1E952
:1001C0000001CDE91001FF224021684600F0F4FB58
:1001D00094E80F008DE80F00684610A902E004C8FB
:1001E00041F8042D8842FAD110216846FFF7C0FF7C
:1001F0001090AA208DF8440000F099F9FFF78AFFCB
:1002000040F6FC7420684FF01025401C0FD0206889
:1002100010226946803000F078F92068401C08D030
:100220002068082210A900F070F900F061F9A869AF
:10023000EEE7A869F5E74FF080500369406940F6A2
:10024000FC71434308684FF01022401C06D0086838
:1002500000F58050834203D2092070479069F7E788
:100260000868401C04D00868401C03D00020704778
:100270009069F9E70420704770B504460068C34DE3
:10028000072876D2DFE800F033041929631E250021
:10029000D4E9026564682946304600F062F92A46CE
:1002A0002146304600F031F9AA002146304600F0E0
:1002B00057FB002800D0032070BD00F009FC4FF46C
:1002C000805007E0201D00F040F90028F4D100F034
:1002D000FFFB60682860002070BD241D94E80700C3
:1002E000920000F03DFB0028F6D00E2070BDFFF715
:1002F000A2FF0028FAD1D4E901034FF0805100EBAE
:10030000830208694D69684382420ED840F6F8704E
:1003100005684FF010226D1C09D0056805EB8305B8
:100320000B6949694B439D4203D9092070BD55694A
:10033000F4E70168491C03D00068401C02D003E0C8
:100340005069FAE70F2070BD2046FFF735FFFFF731
:1003500072FF0028F7D1201D00F0F7F80028F2D135
:1003600060680028F0D100F0E2F8FFF7D3FE00F05B
:10037000BFF8072070BD10B50C46182802D0012028
:10038000086010BD2068FFF777FF206010BD41684E
:10039000054609B1012700E0002740F6F8742068FF
:1003A0004FF01026401C2BD02068AA68920000F065
:1003B000D7FA38B3A86881002068401C27D020688D
:1003C000FFF7BDFED7B12068401C22D026684FF051
:1003D0008050AC686D68016942695143A9420DD9EA
:1003E000016940694143A14208D92146304600F0E5
:1003F000B8F822462946304600F087F800F078F831
:100400007069D2E700F093F8FFF784FEF6E77069B1
:10041000D6E77669DBE740F6FC7420684FF01026DB
:10042000401C23D02068401C0CD02068401C1FD0EA
:100430002568206805F18005401C1BD027683879A5
:10044000AA2819D040F6F8700168491C42D001680A
:10045000491C45D00168491C3ED001680968491C07
:100460003ED00168491C39D000683EE0B069DAE747
:10047000B569DEE7B769E2E710212846FFF778FEA5
:100480003968814222D12068401C05D0D4F8001080
:1004900001F18002C03107E0B169F9E730B108CA63
:1004A00051F8040D984201D1012000E000208A4259
:1004B000F4D158B1286810B1042803D0FEE72846CB
:1004C000FFF765FF3149686808600EE0FFF722FE1C
:1004D00000F00EF87169BBE77169BFE7706904E06D
:1004E0004FF480500168491C01D000F0CBFAFEE7C0
:1004F000BFF34F8F26480168264A01F4E06111439B
:100500000160BFF34F8F00BFFDE72DE9F0411746B3
:100510000D460646002406E03046296800F054F8EF
:10052000641C2D1D361DBC42F6D3BDE8F08140F69B
:10053000FC700168491C04D0D0F800004FF48051D1
:10054000FDE54FF010208069F8E74FF080510A690F
:10055000496900684A43824201D810207047002050
:10056000704770B50C4605464FF4806608E0284693
:1005700000F017F8B44205D3A4F5806405F5805562
:10058000002CF4D170BD0000F40A0000000000202F
:100590000CED00E00400FA05144801680029FCD0C5
:1005A0007047134A0221116010490B68002BFCD0E0
:1005B0000F4B1B1D186008680028FCD0002010603D
:1005C00008680028FCD07047094B10B501221A605A
:1005D000064A1468002CFCD0016010680028FCD08A
:1005E0000020186010680028FCD010BD00E4014015
:1005F00004E5014070B50C46054600F073F810B9EB
:1006000000F07EF828B121462846BDE8704000F091
:1006100007B821462846BDE8704000F037B8000012
:100620007FB5002200920192029203920A0B000B06
:100630006946012302440AE0440900F01F0651F80C
:10064000245003FA06F6354341F82450401C8242F8
:10065000F2D80D490868009A10430860081D016827
:10066000019A1143016000F03DF800280AD00649C4
:1006700010310868029A10430860091D0868039A3F
:10068000104308607FBD00000006004030B50F4CED
:10069000002200BF04EB0213D3F800582DB9D3F8A1
:1006A000045815B9D3F808581DB1521C082AF1D3C3
:1006B00030BD082AFCD204EB0212C2F80008C3F8CD
:1006C00004180220C3F8080830BD000000E0014013
:1006D0004FF08050D0F83001082801D0002070473A
:1006E000012070474FF08050D0F83011062905D016
:1006F000D0F83001401C01D0002070470120704725
:100700004FF08050D0F830010A2801D00020704707
:100710000120704708208F490968095808471020B0
:100720008C4909680958084714208A4909680958FA
:100730000847182087490968095808473020854923
:100740000968095808473820824909680958084744
:100750003C20804909680958084740207D490968BC
:100760000958084744207B49096809580847482028
:1007700078490968095808474C207649096809589A
:10078000084750207349096809580847542071499F
:1007900009680958084758206E49096809580847E8
:1007A0005C206C4909680958084760206949096854
:1007B00009580847642067490968095808476820AC
:1007C00064490968095808476C2062490968095852
:1007D000084770205F4909680958084774205D4937
:1007E00009680958084778205A490968095808478C
:1007F0007C205849096809580847802055490968EC
:10080000095808478420534909680958084788202F
:1008100050490968095808478C204E490968095809
:10082000084790204B4909680958084794204949CE
:10083000096809580847982046490968095808472F
:100840009C204449096809580847A0204149096883
:1008500009580847A4203F49096809580847A820B3
:100860003C49096809580847AC203A4909680958C1
:100870000847B0203749096809580847B420354966
:10088000096809580847B8203249096809580847D3
:10089000BC203049096809580847C0202D4909681B
:1008A00009580847C4202B49096809580847C82037
:1008B0002849096809580847CC2026490968095879
:1008C0000847D0202349096809580847D4202149FE
:1008D000096809580847D8201E4909680958084777
:1008E000DC201C49096809580847E02019490968B3
:1008F00009580847E4201749096809580847E820BB
:100900001449096809580847EC2012490968095830
:100910000847F0200F49096809580847F4200D4995
:10092000096809580847F8200A490968095808471A
:10093000FC2008490968095808475FF48070054998
:10094000096809580847000003480449024A034B54
:100950007047000000000020000B0000000B0000AA
:1009600040EA010310B59B070FD1042A0DD310C82C
:1009700008C9121F9C42F8D020BA19BA884201D97E
:10098000012010BD4FF0FF3010BD1AB1D30703D0C6
:10099000521C07E0002010BD10F8013B11F8014B7C
:1009A0001B1B07D110F8013B11F8014B1B1B01D198
:1009B000921EF1D1184610BD02F0FF0343EA032254
:1009C00042EA024200F005B87047704770474FF0A6
:1009D00000020429C0F0128010F0030C00F01B800C
:1009E000CCF1040CBCF1020F18BF00F8012BA8BF1A
:1009F00020F8022BA1EB0C0100F00DB85FEAC17CDE
:100A000024BF00F8012B00F8012B48BF00F8012B90
:100A100070474FF0000200B51346944696462039C1
:100A200022BFA0E80C50A0E80C50B1F12001BFF4A7
:100A3000F7AF090728BFA0E80C5048BF0CC05DF80D
:100A400004EB890028BF40F8042B08BF704748BF5B
:100A500020F8022B11F0804F18BF00F8012B7047CF
:100A6000014B1B68DB6818470000002009480A4951
:100A70007047FFF7FBFFFFF745FB00BD20BFFDE719
:100A8000064B1847064A1060016881F308884068E1
:100A900000470000000B0000000B000017040000DE
:100AA000000000201EF0040F0CBFEFF30881EFF3ED
:100AB0000981886902380078182803D100E0000015
:100AC000074A1047074A12682C3212681047000084
:100AD00000B5054B1B68054A9B58984700BD0000B0
:100AE0007703000000000020F00A0000040000006E
:100AF000001000000000000000FFFFFF0090D00386
:02000004000FEB
:1040000000000420C9B00F00F1B00F00F3B00F00A2
:10401000F5B00F00F7B00F00F9B00F00000000007E
:1040200000000000000000000000000055430F00E9
:10403000FDB00F0000000000FFB00F00454C0F0066
:10404000554D0F0003B10F0003B10F0003B10F0076
:1040500003B10F0003B10F0003B10F0003B10F0054
:1040600003B10F0003B10F0003B10F0003B10F0044
:1040700003B10F0003B10F0003B10F0003B10F0034
:1040800003B10F0021710F0003B10F0003B10F0046
:10409000D5710F0003B10F0039490F0003B10F00B4
:1040A00003B10F0003B10F0003B10F0003B10F0004
:1040B00003B10F0003B10F0000000000000000007A
:1040C00003B10F0003B10F0003B10F0003B10F00E4
:1040D00003B10F0003B10F0003B10F0081830F0084
:1040E00003B10F0003B10F0003B10F000000000087
:1040F0000000000003B10F000000000003B10F003A
:1041000000000000000000000000000000000000AF
:10411000000000000000000000000000000000009F
:10412000000000000000000000000000000000008F
:10413000000000000000000000000000000000007F
:10414000000000000000000000000000000000006F
:10415000000000000000000000000000000000005F
:10416000000000000000000000000000000000004F
:10417000000000000000000000000000000000003F
:10418000000000000000000000000000000000002F
:10419000000000000000000000000000000000001F
:1041A000000000000000000000000000000000000F
:1041B00000000000000000000000000000000000FF
:1041C00000000000000000000000000000000000EF
:1041D00000000000000000000000000000000000DF
:1041E00000000000000000000000000000000000CF
:1041F00000000000000000000000000000000000BF
:104200000348044B834202D0034B03B11847704765
:104210009C8200209C820020000000000548064B84
:104220001B1AD90F01EBA301491002D0034B03B1B4
:10423000184770479C8200209C82002000000000EC
:1042400010B5064C237843B9FFF7DAFF044B13B1DE
:104250000448AFF300800123237010BD9C8200202E
:1042600000000000FCB70F0008B5054B1BB1054965
:104270000548AFF30080BDE80840FFF7CFBF00BF9F
:1042800000000000A0820020FCB70F00A3F5803AD8
:10429000704700BF174B002B08BF134B9D46FFF71D
:1042A000F5FF00218B460F461348144A121A06F0F8
:1042B000A8FF0E4B002B00D098470D4B002B00D0D1
:1042C00098470020002104000D000D48002802D06E
:1042D0000C48AFF3008006F0ABFF2000290000F08F
:1042E0004DF906F00FFF00BF0000080000000000BD
:1042F00000000000000004209C82002064CA00200E
:10430000000000000000000010B50C46E0B909688C
:10431000C1B10E48814207D0431A3B2B0ED83C2333
:104320005A5CC254013BFBD2084800223C2103F0F6
:1043300055FA074B18800023236010BD3C2206F07D
:104340009BFFF1E70E23F7E70123F5E7827F0020CB
:10435000807F0020074A6FF002039E4502D1EFF3F1
:10436000098101E0EFF308818869A0F1020000787B
:10437000104700BF09430F0038B50446A8B13C21DF
:104380000C48002203F02AFA0B490B8883420ED115
:10439000084A02F13C0052F8045B44F8045B824294
:1043A000F9D101330B80002038BD0E20FCE70B2033
:1043B000FAE700BF827F0020807F00200B2970B5C4
:1043C0000446154608462FD92389053304EB4301DB
:1043D0002044431ADAB2012A26D9814224D813484C
:1043E00006F04AFF2388522B06D1AB0711D0628812
:1043F0004CF668639A420CD00F2014E034F8022F78
:10440000824204D0AE89964203F1010308D1002014
:1044100009E034F8081F00234FF6FE704FF44055B2
:104420009942EBD80B2070BD0920FCE7B882002030
:1044300008B5002203F0D2F9034B1B88834214BF56
:104440000B20002008BD00BFB882002038B50C4CFE
:1044500021684B1C054612D00A484FF4805206F0E2
:10446000A7FE48B115B1206800F0D0FC05492068CE
:104470004FF4806200F0EAFC4FF0FF33236038BD58
:1044800000800020C48200202DE9F041DFF8448044
:10449000044624F47F671846D8F8003027F00F0749
:1044A000BB420D46164609D0FFF7D0FF0848C8F8B2
:1044B00000704FF48052394606F0DEFE0448C4F323
:1044C0000B04324629462044BDE8F04106F0D4BE34
:1044D000C482002000800020BFF34F8F0549064BA7
:1044E000CA6802F4E0621343CB60BFF34F8F00BF92
:1044F000FDE700BF00ED00E00400FA054BDF704768
:1045000010DF704711DF704712DF704713DF70470D
:1045100018DF704760DF704769DF704761DF704701
:104520001FB50023CDE901330393684602230093AE
:10453000FFF7EEFF05B05DF804FB07B500230DF1B2
:1045400007008DF80730FFF7DFFF9DF80730012BDC
:1045500001D1FFF7D7FF03B05DF804FB08B54FF0BA
:10456000E023D3F8F03DDB0700D500BEFFF7B4FF32
:10457000014B1878704700BFC69200202DE9FF4814
:10458000B14B4FF41062C3F8402500F069FA00F017
:10459000C3FE002000F05EFB00F03CFF48B10520A8
:1045A00000F058FB00F048FF00F06CFF062000F020
:1045B00051FB4FF08043A54FD3F81C45B12C0CBFE5
:1045C000012300233B7041D0A4F1A8014A424A4193
:1045D0009F4D13462A704FF08042D2F8001401F02C
:1045E0000108002B40F00C814E2C31D0572C2FD0DD
:1045F000984B1B681A68984B9A4203D1B8F1000F88
:1046000040F0FE806D2C40F004814FF0804300228A
:10461000C3F81C2500F0B0FA00F0B8FDA0B100F01E
:10462000F9FE88B94FF440535A688C4B9A4205D131
:104630003B780BB9FFF774FFFFF77FFF854B1B68D3
:1046400000221A6000F0BAFEFFF746FF0122BFE722
:10465000C2F81C3501262B78002B40F0DF80122099
:1046600000F084F910B1132000F080F900F001038C
:104670002B7000F08BFD774ADFF8E0B11168DFF8AE
:1046800000A2814620B11EB90B687548834214D040
:104690004FF4405043685B450ABF83684FF4905322
:1046A00003F500731B68534500F0C780002E40F0EF
:1046B000C480B9F1000F40F0B38000214FF44050A6
:1046C000126843685B450ABF83684FF4905303F553
:1046D00000731868624B504518BF0023136011B96E
:1046E000B9F1000F96D12B78002B00F0CB80082079
:1046F00000F0B0FA3B780BB9FFF712FF01234FF43B
:1047000074203B70FFF702FF564B57491868019021
:1047100001A8FFF7F5FE554991F81623EC2352093D
:104720001341DA0708D5524B9A68002A00F08780B7
:104730001A6842F480021A600C224E4B0293002148
:104740000DEB020006F05DFD40F20113029A0393A7
:1047500003A94020FFF7E0FE0C2200210DEB020030
:1047600006F04FFD9DF80C30029A43F0010303A9B7
:10477000A0208DF80C30FFF7CFFE0C2200210DEBAE
:10478000020006F03EFD01261723029AADF80E3016
:1047900003A923208DF80C60FFF7BEFE0C22002138
:1047A0000DEB020006F02DFD0623029A8DF80C6039
:1047B00003A920208DF80E60ADF81030FFF7ACFE95
:1047C00002A8FFF7A7FE4FF4405328785A685A45CD
:1047D0000ABF9B684FF4905303F500731B68534561
:1047E00003D0572C01D04E2C56D1012240F6B831BF
:1047F00000F0AAFD2B78002B51D0FFF79EFE09E7B1
:104800004FF0804300226D2CC3F81C257FF422AFAB
:1048100000E7122000F0AAF806461CE7012025E771
:10482000B8F1000F3FF449AF0B4B0B60124B13482C
:1048300043F001039847074A3FE701213EE74FF461
:1048400080030B6078E700BF00A00040C492002006
:10485000C692002004800020D51A5A00DBE5B15131
:104860007E67E54EF6B50F005D450F0000E100E004
:104870000899002000800020F0B50F000048E801F2
:104880007CB0EE87022000F0E5F9A4F14E03584217
:10489000584103F079FD96E700221146A8E703F09E
:1048A000C3FDB7E610B58EB03423ADF802300DF17C
:1048B0000201002301A8ADF80430FFF72FFE0446E3
:1048C00040B9BDF80430102B07D0112B0CD001A833
:1048D00001F068F820460EB010BD054B01221A7099
:1048E000072000F0B7F9F2E7014B18700820F8E74D
:1048F000C592002013B5002301A80193FFF7FEFD28
:10490000044650B9019802F0CBFA019B093B022BF7
:1049100003D8034AD05604F0F1FB204602B010BD84
:10492000ECB50F0008B5FFF7BDFF0528FBD1FFF779
:10493000E1FF0528F7D108BD0021024A084602F030
:104940006DBE00BF25490F001F2884BF00F01F0067
:10495000044B054A98BF4FF0A04300F5E07043F8C0
:1049600020207047000300500C0003001F288ABF5E
:10497000064B4FF0A04300F01F00D3F8103523FA88
:1049800000F0C04300F00100704700BF000300507A
:104990007047704700234FF0FF328360C0F8003546
:1049A000C0F86025C0F86425C0F86825C0F86C25FB
:1049B00040F2FF32C0F80435C0F80825C0F80C35C5
:1049C000C0F81035C0F81435C0F82035C0F82435CB
:1049D000704700001F4B1F294FF0000230B5C3F88D
:1049E00000258BBF01F01F0201F5E0721A4B4FF05A
:1049F000A04388BF02F5E0754FF0030496BF43F86B
:104A0000224043F825400A46012404FA02F2C3F882
:104A10000C2500F5AC700F4B002243F82010FF214D
:104A2000C3F804250220C3F808150421C3F80C15A7
:104A3000C3F810050948C3F81425C3F82005C3F8C6
:104A40002415C3F82825C3F82C25C3F80045C3F85E
:104A5000102130BD00C0014000030050C094002070
:104A60004FF0804310B501220024DA601220C3F811
:104A700018459A60FFF768FF1320FFF765FF354B75
:104A80004FF4C85043F0010398470F212046FFF729
:104A9000A1FFFFF77DFF304BC3F80445D3F8002496
:104AA000002AFBD04FF01022D2F8042302F00702B4
:104AB000072A2DD10122C3F80425274AD2F8003451
:104AC000002BFBD04FF01021D1F8043323F0070363
:104AD00043F00503C1F804330023C2F80435D2F8CB
:104AE0000034002BFBD04FF01023D3F8043303F035
:104AF0000703052B0CD1BFF34F8F1849184BCA6819
:104B000002F4E0621343CB60BFF34F8F00BFFDE7B9
:104B1000144A1E21082002F05DFD08B102F016FEC5
:104B200002F0B6FC0D49104BE02081F823001B6811
:104B30004FF47A72B3FBF2F3013BB3F1807F08D2FA
:104B40004FF0E0225361002381F823009361072393
:104B5000136110BD00B60F0000E0014000ED00E061
:104B60000400FA05C8920020088000200148FFF7E1
:104B700011BF00BF00C001404FF0E023002110B57D
:104B80001961FFF7F3FF154B154C4FF40032C3F8D2
:104B9000802003F1C04303F53C534FF48032C3F847
:104BA0004823C3F8082301225A609A604FF08043DB
:104BB0000220DA600B461F2BD5BF1A4603F01F02F6
:104BC0004FF0A041214602F5E0720133302B41F84D
:104BD0002200F0D1FFF7DDFE10BD00BF00E100E0D4
:104BE00000030050074B82B023F81010064B002240
:104BF000C3F81021D3F810210192019A01229A6082
:104C000002B07047C094002000C001400B4A0C4B1A
:104C100011681B68B1FBF3F203FB1211B1EB530FE8
:104C20004FEA530288BF591A4F235943B1FBF2F19F
:104C3000C1F1FF0189B20020FFF7D4BFC894002062
:104C4000BC940020024A136801331360FFF7DEBFF3
:104C5000C89400201A490A6808281FD8DFE800F025
:104C60000F050F1E1E161A232900164B40F6B830EA
:104C700018604FF480539A4218BF0B607047114B75
:104C80004FF4967018604FF48013F4E70D4B6422D4
:104C90001A6070470B4B40F6B830186002F01033C2
:104CA00023F08053E7E7074B40F6B8301860102335
:104CB000E1E7044B4FF4967018604FF01013DAE7F9
:104CC000B8940020BC94002000F1804382B01A68A0
:104CD000002A14BF0120002004D000221A601B68A3
:104CE0000193019B02B070470F4A1378D3B9037840
:104CF0004FF08041C3F34003C1F88035037803F0DF
:104D00000103C1F87835094B1968C90706D4E021B9
:104D100083F800130121C3F88011196001230448AE
:104D20001370704703487047D894002000E100E0FA
:104D30000000AD0B0C00AD0B014B02681A60704710
:104D4000CC9400204FF080434FF46072C3F80423EA
:104D50007047000010B54FF08043D3F8044362075A
:104D600007D54FF48470FFF7AFFF10B11E4B1B68DF
:104D70009847A30608D54FF48A70FFF7A5FF18B12E
:104D80001A4B00201B689847600608D54FF48C70BA
:104D9000FFF79AFF18B1154B01201B6898472106B1
:104DA00008D54FF48E70FFF78FFF18B1104B00201D
:104DB0001B689847E20508D54FF49070FFF784FF11
:104DC00018B10B4B01201B689847A3050AD54FF477
:104DD0009270FFF779FF28B1054BBDE810401B68C2
:104DE0000220184710BD00BFD4940020D0940020AA
:104DF000CC940020044AD2F80034DB07FBD50160D4
:104E0000BFF35F8F704700BF00E001404FF0805359
:104E10001A69B0FBF2F302FB130373B9084B0222C9
:104E2000C3F80425C3F80805D3F80024D207FBD53E
:104E300000220448C3F8042570470348704700BFA8
:104E400000E001400000AD0B0A00AD0BF8B50B4BC4
:104E50001546012206460F46C3F804250024A54244
:104E600004D1064B0022C3F80425F8BD57F82410DE
:104E700006EB8400FFF7BEFF0134F0E700E00140DD
:104E8000BFF34F8F0549064BCA6802F4E062134333
:104E9000CB60BFF34F8F00BFFDE700BF00ED00E028
:104EA0000400FA054FF08053D3E94C30002808BFC6
:104EB000082B0CBF012000207047000008B54FF000
:104EC0008053D3F83021082A4ED14FF08042002180
:104ED000C2F80C11C2F81011C2F8381502F54042A0
:104EE000D3F80414C2F82015D3F80814C2F8241516
:104EF000D3F80C14C2F82815D3F81014C2F82C15E6
:104F0000D3F81414C2F83015D3F81814C2F83415B5
:104F1000D3F81C14C2F84015D3F82014C2F8441575
:104F2000D3F82414C2F84815D3F82814C2F84C1545
:104F3000D3F82C14C2F85015D3F83014C2F8541515
:104F4000D3F83414C2F86015D3F83814C2F86415D5
:104F5000D3F83C14C2F86815D3F84014C2F86C15A5
:104F6000D3F84434C2F87035FFF79CFF18B1484BB2
:104F7000484AC3F88C26FFF795FF18B1464BFB2231
:104F8000C3F81825FFF78EFF58B14FF080424FF05D
:104F90008051D2F8E43ED1F8581261F30303C2F80D
:104FA000E43EFFF77FFF20B13C4B4FF40072C3F8A3
:104FB00040264FF08053D3F83031082B09D14FF001
:104FC0008043D3F80024D10744BF6FF00102C3F837
:104FD0000024334AD2F8883043F47003C2F8883092
:104FE000BFF34F8FBFF36F8F4FF01023D3F80C2216
:104FF000D2071DD52B4B0122C3F80425D3F800247A
:10500000002AFBD04FF01022D2F80C3223F001031B
:10501000C2F80C32234BD3F80024002AFBD0002224
:10502000C3F80425D3F80024002AFBD0FFF728FF9B
:10503000D3F80022002A03DBD3F80432002B22DA53
:10504000184B0122C3F80425D3F80024002AFBD012
:105050004FF010221221C2F80012D3F80024002AC7
:10506000FBD04FF010231222C3F804220D4BD3F8CB
:105070000024002AFBD00022C3F80425D3F8002422
:10508000002AFBD0D2E7084B084A1A6008BD00BFCF
:10509000005000404881030000F0004000900240B2
:1050A00000ED00E000E00140088000200090D00307
:1050B00013DF704718DF7047064B10461A78012A35
:1050C00003D1012904BF02221A7008B102F03EBBCD
:1050D000704700BF1D95002008B5FFF749FA88B159
:1050E00011481C2101F06EFF08B102F02FFB0F499F
:1050F0000D4800231C2201F055FF98B1BDE808407F
:1051000002F024BB4FF47F20FFF780FE07220749FF
:105110004FF47F20FFF79AFE054B1A78012A04BF4F
:1051200002221A7008BD00BF20950020DC940020E8
:105130001D95002070B5124C124D134ED4F800345A
:105140007BB1C4F80056C4F80456C4F80856C4F835
:105150000C56C4F81056C4F81456C4F81856C4F8BF
:105160001C5602F0C5FA05F06CFF20B104F088FD72
:10517000002005F097F93378023B022BDED870BD92
:10518000000001403546526E1D95002013B54FF4C6
:105190004053124A596891420CBF9C684FF48054A6
:1051A00001A800F09DF92368013302D1636801333F
:1051B00011D0019B1A88012A0DD1588820B1996815
:1051C0000022204602F00AFB019B5B881B1A584212
:1051D000584102B010BD0020FBE700BFDBE5B15134
:1051E00084B02DE9F34108AC84E80F009DF82080DD
:1051F000BDF8227001A80E4615461C4600F070F955
:10520000B8F1060F10D8DFE808F004143325584928
:105210006100304B0122FF215F809C601A809980E1
:105220002D4B1A70FFF758FF02B0BDE8F04104B0F3
:105230007047284B721922449A60A5221A80C3E94C
:105240000365FF229A800C9A5F805C619A61224B11
:105250000122E6E7019A1F4B118819805188926854
:105260009A60AA22C3E9036559809A805C61EEE7DF
:10527000019A184B1188A5290AD100229A60FF22B1
:105280001A60FF229A800022C3E903225A61DEE7F6
:1052900019805188926859809A60F2E7FFF768F99F
:1052A00040B100F089FD08B102F050FA0A4B032228
:1052B0001A70B9E700F008FAF5E7064B00229A6089
:1052C000FF221A60019A92889A80ABE7024B04226F
:1052D000EEE700BFDC9400201D95002000B50C4BCC
:1052E0001B7889B063B90B4B1B786BB905238DF81C
:1052F0000C30079B009303AB0FCBFFF771FF03E06C
:1053000004F0B8FA0028EED009B05DF804FB00BF45
:105310001C950020F89400201FB50023CDE902332E
:10532000074B019301F00EFE38B9064A4FF47F2374
:10533000114601A8536001F023FE05B05DF804FB9F
:10534000B9500F002095002080F001031A40164B41
:1053500070B505460E461A7000F09CFF044628B949
:1053600035B100F085FC0446FFF7E4FE204670BD31
:10537000BEB10E4B0E4A0F481D70294602F0B8F818
:105380004FF400444FF4FA7029464FF47A72002328
:10539000E6FB040105F086FF2A460146064802F0B6
:1053A000B9F800F06DF9DEE71C950020F8940020B4
:1053B000DD520F0018B60F00FC9400201FB5134BF0
:1053C0004FF0FF32C3F88020C3F880214FF44053E0
:1053D0000F4A596891420DD19C682046FFF768FE3C
:1053E00010B14FF000531C60204604B0BDE81040DF
:1053F00000F09AB80023CDE902334FF4805406231D
:105400006846CDE90034FFF755FEE9E700E100E02A
:10541000DBE5B15107B501A800F062F8019B1A88DD
:10542000A52A07D09888A0F1AA035842584103B092
:105430005DF804FB0120FAE710B501F041F9A8B1CD
:105440000E4B0F4843F00103984701F0A3F808B151
:1054500002F07CF901F034F908B102F077F901F0BB
:10546000E5F8044638B102F071F904E001F002F900
:1054700004460028E4D1204610BD00BF10B60F003E
:1054800000A8610000B589B003AB142200211846C2
:1054900005F0B7FE02228DF80C20002200920FC802
:1054A000FFF79EFEFFF746FE002009B05DF804FB03
:1054B00013B5044601A800F013F8019B1A88228056
:1054C0005A8862809A68A2609A88A280DA68E2604C
:1054D0001A6922615A6962619B69A36102B010BDB9
:1054E000014B0360704700BF00F00F00F0B50346AA
:1054F000186880F308885868FF2464B2EFF30585C4
:10550000002D01D1A64600472546064621273FBA71
:10551000F0B40024002500260027F0B4F92040B2A2
:10552000004700BFF0BD00BFFFF7E0BFF7B50023A5
:105530000DF1020101A8ADF80230019302F086FDE1
:10554000034600BB019805785DB3184A92F8301005
:10555000032928D00C2707FB03F416191159E1B9C8
:1055600092F8303015510133DBB282F83030BDF89B
:1055700002300F4A04309B08013BB060084673605C
:1055800002F04CF80346019828B123B102F07AFDED
:1055900008B102F0DBF803B0F0BD0133042BDAD11F
:1055A000F1E70723EFE70423EDE700BF289500208C
:1055B000F9550F00084609B102F0C8B8704700005D
:1055C00010B50C230B4A4343D418D15881B192F83B
:1055D0003010A0680139C9B282F8301004380021B7
:1055E000C4E90111D15002F04DFD08B102F0AEF84E
:1055F000002010BD289500201F4B70B501221F4EC2
:105600001A7096F8303003B970BD1C4C0025236821
:105610006BB1013B042B07D8DFE803F019060F0339
:105620002500204600F0C8FEE8B2FFF7C9FF0135AB
:10563000042D04F10C04EAD1E3E7A368636020467B
:1056400000F05EFE0028EFD002F080F8ECE7204684
:1056500000F038FF00F014FF08B102F077F80520E1
:10566000FFF7F8FAE0E700F059FF00F077FFBDE838
:1056700070400620FFF7EEBAF8940020289500202D
:1056800008B50E4B002283F8302004210139C3E90C
:1056900001221A6003F10C03F8D1094800F02AFE38
:1056A00002F06CFC08B102F051F8064802F052FC1E
:1056B00008B102F04BF8002008BD00BF289500207B
:1056C000B5550F002D550F0008B50020FFF778FFE6
:1056D0000120FFF775FF0220FFF772FF0320FFF79D
:1056E0006FFFBDE8084002F091BC006870476CDFB6
:1056F00070476DDF70476EDF70476FDF704772DF96
:10570000704773DF704774DF704776DF704777DF6D
:1057100070477ADF70477CDF70477FDF704786DF36
:1057200070478FDF704790DF7047AFDF7047B0DFA3
:105730007047B1DF7047B2DF7047B5DF704764DF95
:10574000704766DF70470C280AD8DFE800F00709C9
:10575000090909090B091409090F0D0001207047F7
:1057600006207047032070470420704704290CBFAF
:105770000520062070470220704701F0E7BF10B5F2
:10578000044608460321FFF7DEFF0246204601F0EB
:1057900051F918B1BDE8104001F0D8BF10BD0000AC
:1057A0000346032B10B50846144620D0042B23D102
:1057B00069B1124B18884FF6FF7398421CD0132121
:1057C000FFF7A3FFC0B1BDE8104001F0BFBF104616
:1057D00002F062F808B101F0B9FF094B1B689C4266
:1057E0000AD101220321074801F024F9EAE7012147
:1057F000FFF7A9FF0246F6E710BD00BF14800020A6
:1058000094950020EC950020F8B50A4DAB889E18C1
:105810001D2E14460DDC2F68FE1802F1010C07F84E
:1058200003C07070B01C05F027FDAB8802331C4428
:10583000AC80F8BD7C950020F0B54E4E347893B026
:10584000002C40F09380102221464B4805F0D9FCF3
:10585000494A4A4B1360214618220CA805F0D1FC96
:1058600001238DF8303028230E93454B1B78002BF5
:105870007ED0444B02AC03F11005186859682246EB
:1058800003C20833AB421446F7D13F48102202A9A5
:1058900005F08EFC00286BD03C4B3D4C1C60012178
:1058A0001846FFF728FF08B101F050FF364B06AA53
:1058B00003F1100C174618685968154603C50833DC
:1058C00063452A46F7D1A3798DF82E30314B2068F5
:1058D000A2880A90ADF82C200021012218461F60F2
:1058E000FFF70BFF08B101F031FF03238DF84430BF
:1058F00004238DF8063041F23053ADF80830264BC2
:1059000006AA9B798DF80A300DF1070102A8FFF76E
:1059100016FF012210460DF10601FFF775FF1F4823
:1059200005F0B8FC1D49C2B20920FFF76DFF102237
:1059300006A90620FFF768FF0F4919480CAAFFF7D0
:10594000DEFE08B101F002FF154C0422217801208F
:10595000FFF7DDFE08B101F0F9FE20780121FFF725
:10596000D0FE08B101F0F2FE0123337013B0F0BD98
:105970000623BEE7D69500207C9500205C9500208C
:1059800098950020BCB60F00A195002090950020AE
:105990009A9500208C950020EC9500201CB60F00F5
:1059A0000C800020F0B504460146B1B0A64801F0D5
:1059B00075F82388262B3BD80F2B04D8012B00F039
:1059C000CC8031B0F0BD103B162BFAD801A252F8B2
:1059D00023F000BF5D5A0F006B5A0F00C3590F0030
:1059E0009D5A0F00975B0F00C3590F00C3590F005A
:1059F000C3590F00C3590F00C3590F00B35B0F0009
:105A0000C3590F00C3590F00C3590F00C3590F00EA
:105A1000C3590F00C3590F00255C0F00C3590F0075
:105A2000175C0F00C3590F00C3590F001D5B0F0017
:105A3000513B9AB2052AC4D8052BC2D801A252F80C
:105A400023F000BF675B0F00B35B0F00C3590F006B
:105A5000C3590F00375C0F00035B0F007B4BA2881C
:105A60001A807B4B00221A70ABE78023774CADF88D
:105A70002430784B208832221A6010A9012309AA09
:105A8000FFF759FE08B101F061FE734B1B780BB9AB
:105A9000FFF7D2FE4FF6FF73238092E76F4B03AC04
:105AA0009A79186899888DF822200790DA1DADF848
:105AB00020101733264610685168254603C5083262
:105AC0009A422C46F7D1664B09AA03F118071546EE
:105AD00018685968144603C40833BB422246F7D1FC
:105AE0001868206059485F4A008810AB8521CDE9CD
:105AF0001456FFF712FE00283FF463AF01F026FEB4
:105B00005FE7A379002B7FF45CAF504B132118881B
:105B1000FFF7FBFD00283FF454AF77E0237A012B19
:105B20007FF44FAF4A4B00221A704A4B1968013973
:105B3000196069B910AB1422184605F062FB052202
:105B40008DF84020149A00920FC8FFF749FB38E700
:105B500031B0BDE8F040FFF76FBE3C4B0021188824
:105B6000FFF7EFFDD6E7A379002B3FF42AAFA27B26
:105B7000043A022A3FF625AF022B18BF01238DF805
:105B800040304FF4C173ADF84430304B10A9188841
:105B9000FFF7CDFDAFE7314A258A508D02F118019C
:105BA0000023854218BF19460732A088FFF7B7FDCA
:105BB000B0E7264C20884FF6FF75A84225D02A4B27
:105BC0001B78EBB1294901230822FFF7B2FDE8B9A0
:105BD0000246014602232088FFF7ABFDB0B92088BA
:105BE0002A460C21FFF7A1FDA0F54053023B012BF3
:105BF0007FF6E7AE08283FF4E4AE11288AD1E0E64C
:105C00001A461946FFF795FD84E7082031B0BDE834
:105C1000F04001F09BBD0D4B002218881146FFF7A4
:105C200082FD77E70023ADF84030084B10A91888B3
:105C3000FFF777FDC5E6E188044B1729188828BFD0
:105C40001721FFF77AFD65E7EC950020148000200E
:105C5000D695002010800020D89500209A9500202D
:105C6000B29500201C96002098950020CE9500202B
:105C700030B5434A4348002395B01370424A13702D
:105C800000F038FB01F0C8FD0446002861D13F4810
:105C9000FEF772FB00285FD13D4B01221A701123E1
:105CA0003C488DF8043005F0F5FA3A4982B201A873
:105CB000FFF731FD08B101F049FD0822002104A8D9
:105CC00005F09FFA344A4FF0C87304A8CDE90423C5
:105CD000FFF71FFD08B101F039FD00210C2201A8DA
:105CE00005F08FFA0823ADF804302C4B02932C48B2
:105CF0002C4B039301A900F021FD08B101F026FD12
:105D0000294D4022002104A805F07BFA284605F021
:105D1000C1FA0595254DADF81000284605F0BAFAF0
:105D20000795234DADF81800284605F0B3FA112366
:105D3000ADF8300004A8ADF84C300D9500F0BEFF72
:105D40001C4B30221A7007225A7010229A70FFF7EB
:105D500073FD204615B030BD04A8FFF7CAFC08B19A
:105D600001F0F4FC9DF8113004A801338DF81130D6
:105D7000FFF7BDFC002892D001F0E8FC8FE700BFE0
:105D8000D8950020A1570F00E99500209A95002092
:105D9000989500201CB60F0008001800095E0F003F
:105DA000EC9500207B570F0023B60F0032B60F0092
:105DB0003CB60F001C96002010B50F4B01221A7044
:105DC0000E4B18884FF6FF73984207D01321FFF748
:105DD0009CFC08B101F0BAFC002010BD084C2378EF
:105DE000002BF9D0074B1878FFF78DFC08B101F0B4
:105DF000ADFC00232370EFE7D8950020148000202D
:105E0000D69500200C800020F0B50B7889B00546AF
:105E10000C46092B2ED8DFE813F026002F003A009D
:105E20000A0019002300000109013D000E0100F0E5
:105E300075FB0421FFF787FC0246284600F0FAFDB7
:105E4000C0B109B0BDE8F04001F080BCFFF7B4FF7D
:105E500000F084FB70B109B0BDE8F04000F08CBBED
:105E6000FFF7AAFFF7E7764B01221A704B681A7802
:105E7000744B1A7009B0F0BD714B02261E704B684E
:105E80001B78012BF6D100F0FBFA3146D2E76C4BC0
:105E90000322EEE70520FEF7DDFE694B1E78022E99
:105EA00037D0032E59D0012EE4D104AB102218466E
:105EB000002105F0A6F9634A237A12788DF81020A4
:105EC000002203920C2B4FF00302CDE9012008D0F1
:105ED0003146284600F0AEFD0028CBD001F036FC5C
:105EE000C8E763681846FFF700FC0590181DFFF728
:105EF000FCFB069003F10800FFF7F7FB079001A8F1
:105F000000F0FEF90028B5D03146FFF71CFC024630
:105F1000DFE7237A13F0030012D0C0F104021A4421
:105F2000D2B219464FF0000C0E4601316768C9B273
:105F3000914207F806C0F7D11B1A0433DBB2237273
:105F4000012204929B086268069204A8059300F05F
:105F5000B9FA00288ED00221D7E7207A830702D031
:105F60003246314669E7384E0190314601F06AFC0D
:105F7000014618B12846FFF702FC7BE76168019AE9
:105F8000306805F079F9019801F0C2FC014600285B
:105F9000F0D101A9304601F0CBFC01460028E9D13F
:105FA00004230493019B9B08059304A8336806937C
:105FB00000F002FA074640B9244A237A11680B44DC
:105FC0001360234B32681A6054E709281BD11F4B1A
:105FD000217A1A68114419601E4B1B78002B3FF47C
:105FE00049AF1D4C2388013B9BB22380002B7FF4DB
:105FF00041AF284600F0E4FC08B101F0A7FB174BC5
:106000001B88238036E7306801F046FC014610B15A
:106010002846FFF7B4FB3946ACE70E4B01221A7055
:106020000E4A8B8813800C4A138023E7094A002309
:1060300013700A4AF8E7054B196800F085FCFFE683
:10604000E9950020E8950020DC950020E4950020EB
:1060500094950020D7950020E0950020E29500203F
:1060600018DF70470129F8B50D4614461E4607D0C3
:10607000032912D00CB32046BDE8F84001F066BBFE
:106080000E4B1B78052BF5D10D4B1B68002BF1D067
:106090003246214604209847ECE7084F3B78022B14
:1060A000E8D1084B5B689847054B3D701B68002B97
:1060B000E0D0324621462846EDE7F8BD989600200C
:1060C000309600202496002030B589B003AC14220D
:1060D0000021204605F095F8094B1B88ADF80E30DD
:1060E000084BDB6806930025079B8DF80C50009346
:1060F00094E80F00FFF774F8284609B030BD00BFE0
:10610000409600208496002000B589B003238DF8C6
:106110000C300A4B1B88ADF80E30094B5A680492BC
:106120009A68DB680693079B0093059203AB0FCB3D
:10613000FFF756F8002009B05DF804FB40960020F8
:106140008496002000B589B001238DF80C300F4BE8
:106150000F4A1B88ADF80E304FF4405359689142F6
:1061600008BF9A680B4B5968049118BF4FF48052CE
:106170009968DB6806930591009203AB0FCBFFF79C
:106180002FF8002009B05DF804FB00BF4096002006
:10619000DBE5B1518496002000B589B003AB142231
:1061A0000021184605F02DF804228DF80C2000225D
:1061B00000920FC8FFF714F809B05DF804FB000067
:1061C000184BF7B5184D1D60184B02221A70FEF7D8
:1061D000CFF9174B0446196840B1284600F0F2FE8B
:1061E000F0B103B0BDE8F04001F0B0BA4D1E2D0B88
:1061F000104F01354FF440567368BB420CBFB06876
:106200004FF4805000EB04300134FEF7FFFDA5424F
:10621000F2D80023044800931A460321FFF722FF17
:1062200003B0F0BD349600203896002098960020E8
:1062300094960020DBE5B151F0B51F4685B00323ED
:10624000CDE900300546960868460C460291039653
:10625000FFF706FFE0B1B4F5805F11D8012368466F
:10626000CDE90035CDE90246FFF7FAFE80B90323F8
:106270006846CDE90035CDE90246FFF7F1FE07E0BB
:106280003B463A46E11BE81BFFF7D6FF0028E5D066
:1062900005B0F0BD1FB5104B0193104B1049002401
:1062A0001C70104B01A8CDE902441C8000F068FE70
:1062B00070B94FF440530C4A59689142084A0CBFD8
:1062C0009B684FF480535360084B00221A600124EE
:1062D000074B1C7004B010BD65600F004296002093
:1062E0003896002040960020DBE5B1519C960020B6
:1062F00098960020014B1860704700BF3096002030
:1063000038B54368224C0FCB84E80F002378590737
:1063100001D59A0735D16068850732D1A268910707
:106320002FD1E16811F003042BD11044084419491E
:10633000B2F5204F086026D84FF4405216495568F0
:106340008D420ABF92684FF46922C2F56A229042D8
:1063500019D8DA0713D4114A13F0020F104B08BFF3
:106360001346104A104911601049C2E90113104B3D
:106370001B78012B09D1FFF723FF204638BD0D4BB9
:10638000EFE70624F9E70C24F7E70824F5E700BF58
:106390008496002094960020DBE5B151C9600F007F
:1063A00009610F0024960020C1610F0099610F0060
:1063B0009896002045610F002DE9F34100284DD04B
:1063C0008668B3074CD1294B1B78052B4AD1284D41
:1063D00042682B68274F03EB820394003A6893428C
:1063E00006D94FF0FF332B600C2002B0BDE8F081DE
:1063F000FEF7BEF8DFF88480D5F800C098B1D8F871
:10640000000063462246314600F0CCFD0028ECD166
:106410002B681C443B682C609C4225D1FEF7A8F8F1
:10642000C8B10020E1E74FF4405313495A688A424B
:106430000CBF98684FF480502246314660440023D8
:10644000FEF722F80094D8F800003346002201211C
:10645000FFF708FEDCE7FDF7F9FFE2E70E20C4E7EF
:106460001020C2E70820C0E70920BEE79896002068
:106470009C96002094960020DBE5B15134960020D4
:1064800070B50B4B1D6885B90A4E3378042B0CD1BF
:10649000094C0A4B21781A780948FDF78FFF10B98B
:1064A0000523337070BD2570FCE70820FAE700BFB4
:1064B0009C9600209896002042960020849600200A
:1064C00043960020F8B5114B1A78032A04D0042A09
:1064D00004D008242046F8BD04221A700C4B1C6816
:1064E000002CF6D10B4D43682F789E0007EB8303F9
:1064F000402B09D8816808483246384404F0BCFE75
:106500002B7833442B70E5E70924E3E798960020C5
:106510009C960020429600204396002010B50B4C1C
:106520002378052B10D10A4B0A4A1B68116899423F
:106530000AD106232370084B1B685868FDF778FFC3
:1065400008B90723237010BD0820FCE798960020A7
:10655000949600209C96002034960020044B1B78D3
:10656000072B02D1034B9B6818470820704700BFD8
:10657000989600202496002000B589B006238DF857
:106580000C30079B009303AB0FCBFEF729FE09B03D
:106590005DF804FBF0B58DB005A8FEF789FF089CF7
:1065A000002C3ED00B9E04F58053B3422DD91E4DD6
:1065B000A6F5805305EA53054FF440539B689C426F
:1065C0000BD869002B46A4EB450201F5805106EB80
:1065D0004500FFF731FE0DB0F0BD05F580530127F2
:1065E00001A8CDE90173CDE90337FFF739FD002894
:1065F000F1D14FF4805301A8CDE9023301970497FC
:10660000FFF72EFD0028E6D1DBE70123CDE90136B7
:10661000A4084FF4805301A803930494FFF720FDCE
:10662000D9E72046D7E700BF00F0FFFF00B58DB0E7
:1066300005A8FEF73DFF099880B1089B8BB94FF480
:1066400040530B4A596891420ED19B688008002242
:10665000039001A8CDE90123FFF702FD0DB05DF81D
:1066600004FB0B9A1344F1E74FF48053EEE700BFAD
:10667000DBE5B15100B58DB005A8FEF719FF09980B
:1066800098B1089BA3B94FF440530C4A5968914202
:1066900011D19B680393800803214FF47422049066
:1066A00001A8CDE90112FFF7DBFC0DB05DF804FB9A
:1066B0000B9A1344EEE74FF48053EBE7DBE5B1515F
:1066C00010B58CB005A8FEF7F3FE0898B8B10B9C86
:1066D00000F58053A34214D94FF440539B6898426D
:1066E0001BD80F4BA4F5805203EA52035900A0EBCC
:1066F000430201F5805104EB4300FFF79DFD0CB010
:1067000010BD800803224FF48053049001A8CDE906
:1067100001230394FFF7A4FCF1E70E20EFE700BF8D
:1067200000F0FFFFA8DF7047AADF7047ADDF7047BA
:10673000AEDF7047B0DF704762DF70472DE9F0478A
:106740000E4694B00546002800F0F780002900F0BE
:10675000F4804B68002B00F0F0804FF6FF7303804D
:10676000774B04AA03F1100718685968144603C44C
:106770000833BB422246F7D141F230530DF10A01F2
:1067800004A80293FFF7D8FF0446002840F0D18008
:106790002A1D02A90120FFF7C5FF0446002840F08A
:1067A000C8809DF80A30AB7101461C220DA804F088
:1067B00028FD9DF834300E9443F004038DF83430F6
:1067C00001AFAB798DF80E30214641F232530322EE
:1067D0003846CDE91044CDE91244ADF80C3004F050
:1067E00010FD9DF8063023F01F0343F003032146FC
:1067F00014224FF4885A08A88DF80630ADF804A08A
:106800000DF10C0804F0FDFC4FF01409A8880A945F
:1068100005F1080308AA0DA90C94CDE90887ADF885
:106820002C90FFF781FF0446002840F0828001464B
:106830001C220DA804F0E5FC9DF834300E9423F0E2
:10684000180343F018038DF83430AB798DF80E300F
:10685000214641F2315303223846CDE91044CDE9B7
:106860001244ADF80C3004F0CCFC9DF80630ADF8C5
:1068700004A023F01F0343F0130321464A4608A84F
:106880008DF8063004F0BDFC1723ADF82C30A88835
:106890000A9405F1100308AA0DA90C94CDE9088704
:1068A000FFF742FF0446002843D101461C220DA8F1
:1068B00004F0A7FC9DF834300E9443F002038DF8E9
:1068C0003430AB798DF80E30214641F23453032237
:1068D0003846CDE91044CDE91244ADF80C3004F04F
:1068E00090FC1123ADF804309DF8063023F01F030F
:1068F00043F0030321464A4608A88DF8063004F009
:1069000080FC02230A93ADF82C30A8880C9605F180
:10691000200308AA0DA9CDE90887FFF705FF044663
:1069200038B97368AB62B36803B1EB62054B0122FF
:106930001A70204614B0BDE8F0870E24F9E700BFB6
:10694000CCB60F00A796002070B5054686B070B390
:1069500002884FF6FF739A422BD0174B1B7843B334
:10696000164C1022080AE170207121FA02F0090E7B
:10697000072301266071A17102A800216370ADF8A0
:1069800006302270A67004F03CFC2B8AADF808306B
:106990000023ADF80C3028888DF80A600DF106034D
:1069A00002A9CDE90434FFF7C3FE06B070BD0E2086
:1069B000FBE70820F9E700BFA7960020A09600207B
:1069C00030B5044687B060B302884FF6FF739A4231
:1069D00029D0164B1B7833B3154D11232B700B0A9E
:1069E0006970AB700B0C090EEB7029710523002147
:1069F000102202A8ADF8063004F003FC238AADF89B
:106A0000083001238DF80A300023ADF80C302088BF
:106A10000DF1060302A9CDE90435FFF789FE07B0A1
:106A200030BD0E20FBE70820F9E700BFA796002045
:106A3000A096002030B5134687B0044630B30088D6
:106A40004FF6FF72904223D0124A127802B3124DD1
:106A5000697003211022ADF8061002A80021AB7066
:106A60002A7004F0CEFB238AADF8083001238DF89C
:106A70000A300023ADF80C3020880DF1060302A97E
:106A8000CDE90435FFF754FE07B030BD0E20FBE71B
:106A90000820F9E7A7960020A096002070B50D46C3
:106AA00088B0044650B149B1826A3AB10B88502B84
:106AB00049D005D8102B43D0112B54D008B070BD4D
:106AC000512BFBD18E79022EF8D10A89038A9A4282
:106AD000F4D18B7B043B022BF0D99DF816308DF856
:106AE000106043F001038DF816300B8AADF81830B2
:106AF0004B8AADF81A30082201F1140301A80021D5
:106B0000079304F07EFBA18A2088019601AACDF8A4
:106B100008D0FFF70BFE48B3E36A03B1984740F291
:106B2000FD132088ADF8143004A9FFF703FE0028F8
:106B3000C4D0E36A002BC1D008B0BDE8704018474C
:106B40008B882380BAE7C98803899942B6D1082384
:106B50008DF81030123535F8023C8DF81830059557
:106B600004A99047AAE74FF6FF73EAE7BDF80030A3
:106B70002088DB07D3D5002604A9ADF81460FFF701
:106B8000D9FD0028D5D1297D4B1E072B3ED8DFE843
:106B900003F004192226282A3B2C6B8A8DF8046006
:106BA000012B05D8062201212046FFF743FFBEE74F
:106BB000012315358DF80C300295A36A01A92046F2
:106BC00098477BE76A8A01239A428DF80430F0D80F
:106BD00006220221E8E702238DF80430EDE70323C3
:106BE000FAE70423F8E70523F6E76B8A022B02D8BD
:106BF00003220821D8E7B5F81530ADF80830002B8E
:106C000014BF06230723E7E70923E5E70322CBE7C1
:106C1000A8DF7047AADF70472DE9F04180468EB0AB
:106C200016461F460D4611B9084600F08FFD1C227E
:106C30000DEB0200002104F0E4FA9DF81C30ADF8E1
:106C40000480002443F002038DF81C302146012308
:106C5000032268468DF80630CDE90A44CDE90C449C
:106C6000089404F0CEFA3B788DF800307B788DF8EC
:106C700001309DF8023023F01F0343F00203214648
:106C8000142202A88DF8023004F0BBFA0A48ADF8CD
:106C9000106001ABE846CDE9023802AA149B0088D7
:106CA000ADF8124007A9ADF814600695FFF7B2FFE2
:106CB0000EB0BDE8F08100BFC896002030B587B0A7
:106CC00041F60A032D4AADF80C30044603A9012011
:106CD0008DF80E00FFF79CFF0546D8B92288E2B96F
:106CE00022894AB1264B0093E16804F13C0342F645
:106CF0002420FFF791FFD8B9228C4AB1214B009391
:106D0000616A04F13C0342F62620FFF785FF78B95B
:106D1000A36B7BB9284607B030BD1B4B009361685D
:106D200004F13C0342F62920FFF776FF0028D7D074
:106D30000546EFE71A788DF810205A888DF8112053
:106D4000120A8DF812209A88DB888DF815301B0AFC
:106D50008DF813208DF81630120A0C4B8DF8142084
:106D60000093072204F13C0304A942F65020FFF7E8
:106D700053FF002818BF0546CCE700BFC896002087
:106D8000B8960020B0960020C0960020A89600205B
:106D900029DF704728DF7047064B182202FB0030BE
:106DA00000230422C0E90423037183608361C3606C
:106DB000704700BFE496002013B502460846C96834
:106DC00043680093044B53F82140436910F80C1BAF
:106DD000A04702B010BD00BFD496002038B5194CB2
:106DE0002378182202FB03431A795869012A03D039
:106DF000032A1AD00F2038BD134A996915689A687A
:106E0000DB68A2EB0532B2F5805F184401EB053177
:106E100000EB053034BF92084FF48062FFF7B8FFF3
:106E20000028E8D10123A370E5E74FF080531B69E8
:106E30009BB2B0FBF3F0044B1B681844FFF7AAFFAA
:106E4000EEE700BFE4960020CC96002070B5134D0D
:106E50006C780A2C1FD02E783444E4B2092C84BFFD
:106E60000A3CE4B2182606FB0454A261207103C94F
:106E7000A360049BE360AB7804F1100282E8030096
:106E800023B100206B7801336B7070BDFFF7A6FF54
:106E90001128F7D1F5E70420F7E700BFE4960020BA
:106EA00038B5264CA3782BB100230228A37002D05A
:106EB00003283BD038BD25782149182202FB054222
:106EC0000B6892680133B2EB033F0B6019D86B1C5F
:106ED000DBB262780020092B08604FF0180188BFF0
:106EE000A5F1090302F1FF3201FB0541D2B288BFCF
:106EF000DBB2043162702370FFF75EFF2846FFF7B4
:106F00004BFF6378002BD5D0A378002BD2D1FFF7AD
:106F100065FF0028CED01128CCD02178182303FBA0
:106F200001410431BDE83840FFF746BF23781822FD
:106F300002FB034104310D20F4E700BFE49600207A
:106F4000CC96002008B50A4B00211960094B198026
:106F5000997008460131FFF71FFF0A29F9D1064B46
:106F600000201860054BC3E90000C3E9020008BD1A
:106F7000CC960020E4960020D0960020D4960020E5
:106F8000064A03461068042807D00860411C1160B7
:106F90001A68034B43F8202000207047D096002049
:106FA000D496002013B55C180C43A40708D10093B5
:106FB00013460A4601460120FFF748FF02B010BD04
:106FC0001020FBE707B500220B4600920146032084
:106FD000FFF73CFF03B05DF804FB082910B5044639
:106FE00002D0002000F0B2FBD4E90030BDE8104030
:106FF00018470000204B21491A682F2300BF00BF0B
:1070000000BF00BF00BF00BF00BF00BF8A422FD03B
:1070100000BF00BF00BF00BF00BF00BF00BF00BF78
:1070200000BF00BF00BF00BF00BF00BF00BF00BF68
:1070300000BF00BF00BF00BF00BF00BF00BF00BF58
:1070400000BF00BF00BF00BF00BF00BF00BF00BF48
:1070500000BF00BF00BF00BF00BF00BF00BF00BF38
:1070600000BF00BF00BF00BF00BF00BF00BF00BF28
:10707000013BC3D1704700BF088000200024F4000A
:107080000C4B0D484FF4003210B5C3F8802001249A
:107090004FF48033C0F84833C0F808334460FFF73A
:1070A000A9FF064B846000201860FFF7A3FF044B84
:1070B000187010BD00E100E000100140E4970020CE
:1070C000D9970020F7B5002406460DF107000F46BA
:1070D0008DF8074000F048FB0F4A9DF807005578EF
:1070E00091786B1CDBB2994208BF23461178994214
:1070F0001BBF182101FB052504242F711CBFAE60A6
:10710000537000F055FB24B9044B4FF48012C3F8C0
:107110000021204603B0F0BDEC97002000E100E024
:10712000F7B52449244B0025C1F84051C1F844511A
:10713000C1F84851C1F84C51C1F80051C1F804518F
:107140001B68002B31D0D1F804451C490968641A2A
:1071500024F07F442F461A68A24212D8A41A15447C
:107160001A7CDE6962B15A691F7400929B69144AE5
:1071700001930821684600F051FA08B100F0E6FAE0
:10718000AEB9104A104913780978994205D10133F4
:10719000DBB2022B08BF002313700C4A42F82350C5
:1071A0000B4B4FF48012C3F8002103B0F0BD3346FF
:1071B000D1E700BF00100140E8970020E4970020CD
:1071C000DB6F0F00DA970020DB970020DC970020B0
:1071D00000E100E02DE9F74FA248A34A03781278B6
:1071E000A24C9A4257D00133DBB2022B12BF1A468F
:1071F000002213469E4902709E4A0F6852F82300EF
:107200003B1823F07F4300220B6023681646154687
:10721000944613B942B1236006E01968814228D927
:1072200002B12360091A19604FF0010B2368DFF8DF
:107230005C8200934FF0000A002E46D03046F6697B
:107240008B4B45681A688C4F8368A91A21F07F41DF
:10725000B94200F2E2800B4401210174216803600D
:107260000022C0E90122C261002940F0DE802060D6
:10727000E2E7401A0D44D968D3F81CE0C3F800C017
:1072800031B17A1922F07F42C3E90121DE611E4645
:1072900073460122BDE70026B346C7E798F802000F
:1072A0002568531CDBB2984208BF002388F80030E1
:1072B000182303FB028213799068022B67D0032BFB
:1072C00000F09580012B00F0958098F8002098F848
:1072D00001309342E2D12368BAF1000F05D1009A40
:1072E0009A4202D1BBF1000F42D0002B00F0B680D1
:1072F000D3F80090614C5E4BD4F804651868604F79
:10730000351A3B7825F07F4503359BB94FF4803320
:10731000C4F84433C4F804335A4B4FF400324FF0EE
:107320000108C3F880211A60C4F80080FFF762FEEC
:1073300087F80080A9452CBF4844401920F07F40C1
:10734000C4F84005D4F804359B1B23F07F43801B11
:10735000033320F07F4083420AD9D4F80435C4F8BF
:107360004035FFF747FE474B4FF40032C3F800218A
:10737000454B00221A7003B0BDE8F08FB84209D027
:107380003A46FF69002FF9D1002303749DE72F4689
:107390002A46F7E790421ED1D5F81C90C4F8009019
:1073A000B9F1000F0BD1354B019201219960304B9F
:1073B000C3F80090344B1970FFF71CFE019A3B682C
:1073C000FF69D76117B13A6813443B60A94518BFFC
:1073D0004AF0010AD8E7A946F1E72A74ED690123CA
:1073E000002DFAD1002B3FF470AF25606DE700232C
:1073F0001A46F5E7057C002D7FF467AFD168416040
:10740000136983605369C360936983611E4B1B7862
:10741000002B18BF2946416012E7521B22F07F4221
:107420009A4234BF9B1A002316E70A689A4213D384
:10743000D21A0A60C1611AE75B1BD56911463DB1DA
:107440002A461568AB42F7D8ED1A156015460A466C
:107450000360C561D061EFE60A46F2E7FFF710FE70
:1074600086E700BFDB970020DA970020E89700202E
:10747000E4970020DC970020FEFF7F000010014011
:10748000D997002000E100E0D8970020EC97002079
:1074900008B5FFF7F5FD104B00200B2218809A70FD
:1074A0000E4B18600E4B18700E4B18700E4B4FF4AD
:1074B0008012E021C3F8802183F814131A6002F1CE
:1074C0008042A2F56F22C2F8080583F81113074B1A
:1074D000D2F804251A6008BDEC970020E897002038
:1074E000DB970020DA97002000E100E0E49700201D
:1074F000074B9B784BB132B128B10368187C20B997
:1075000059745A617047072070470820704700BFC0
:10751000EC9700202DE9F347234EB37807468846C1
:107520009146002B3CD000283AD0042936D9436933
:10753000002B35D0437C0024012B0DF107000CBF3C
:107540008A46A2468DF8074000F00EF97378B278AB
:107550005D1CEDB2AA4208BF25463278AA421BD074
:10756000182202FB036301221A71104A9F60D2F8AD
:1075700004257570C3E90328C3E905A99DF8070030
:1075800000F016F974B90A4B4FF48012C3F80021C9
:10759000204602B0BDE8F0870424EFE70724F7E7B0
:1075A0000824F5E70424F3E7EC97002000100140DD
:1075B00000E100E0064A92783AB130B1426922B166
:1075C000002202740221FFF77DBD0820704700BF32
:1075D000EC9700204B1C30B5DB00044612F0030092
:1075E0009BB20DD1074D2A601A44074B1A60074B16
:1075F0001870074B1870074B1C80074B198030BD63
:107600000720FCE70499002000990020FC98002046
:10761000FD980020FA980020F89800202DE9F34703
:10762000DFF8C480B8F800308B4206460D46174696
:107630004DD300240DF107008DF8074000F094F8B9
:10764000254B264A26481B78008892F800C08445BE
:107650005FFA8CF138BF0131DBB238BFCCB2A34244
:107660002FD014781178CBB2884286BF0133DBB2B9
:107670000023E4B213709DF8070000F099F84FF66C
:10768000FF739C4225D0DFF86490D9F800304FEAB0
:10769000C40A43F8347003EBC402AEB1A5B1114B78
:1076A000B8F800001B682A4604FB0030314603F09E
:1076B000E3FDD9F8003053449D80002002B0BDE8BE
:1076C000F0874FF6FF74D6E700239380F5E7092093
:1076D000F4E70420F2E700BFFD980020FC980020AA
:1076E000F898002000990020FA98002004990020C2
:1076F00070B5104C104D22782B789A4200D170BD95
:107700000E480F4A2378126806880E4802EBC30120
:10771000006852F83320898803FB060090470A4925
:1077200022780988D3B2914286BF0133DBB20023AD
:107730002370E0E7FD980020FC980020FA980020D4
:107740000499002000990020F89800201FB500211E
:10775000CDE9021001AA44F20100ADF80410FCF7D3
:10776000FDFE05B05DF804FB70B5EFF3108672B650
:107770000C4A9468012384B993600B4B0B4DD3F8EA
:10778000801029401160C3F88050D3F884105160F4
:107790004FF0FF32C3F884202346037006B962B667
:1077A00070BD00BF0899002000E100E0FC06FFBDAD
:1077B00010B5084B9A685AB150B9EFF3108172B600
:1077C000054A1C6814605C685460986001B962B630
:1077D00010BD00BF0899002000E100E003462AB177
:1077E00010881A4619448A4203D170474FF6FF7039
:1077F000F7E743BA12F8010B9BB25840C0F30313EA
:1078000043401BB283EA03331BB2580100F4FF501C
:10781000434098B2E7E70000064B074A0020187083
:10782000064B1A600822C3E90120C3E90300C3E93B
:107830000500704710AC00203099002014990020FA
:107840000020704730B50446E9B1124B5A68002059
:107850000860D2B1B4F5167F19D8013A5A60DA68D7
:107860001C680132DA601A694FF4177505FB02448F
:107870000C609969012494400132214302F007020F
:1078800099611A6130BD0E20FCE70420FAE70C2054
:10789000F8E700BF14990020F0B51C498A6892B33C
:1078A0004D690E68AC1A04F0070423464FF41777AD
:1078B00007FB036C604510D1886901259D40684035
:1078C000886100204E68D1F818C04FF0010E734453
:1078D0000025164403F007030AE0013303F0070311
:1078E0009D42E5D11020EDE74AB1013A1C46012541
:1078F0000EFA04F414EA0C0FA6EB0207F4D00DB153
:10790000C1E90172F0BD0420FCE700BF149900201A
:10791000064A13691268013B4FF4177103F007031D
:1079200001FB0323C3F8580200207047149900207C
:1079300030B5C0B1B9B10E4BDA68B2B1013ADA6014
:107940009A681C6801329A605A694FF4177505FBF2
:10795000024404600132D4F85802086002F00702C1
:107960005A61002030BD0E20FCE70420FAE700BF7A
:10797000149900203FB40C49086890B10B4B1C6867
:107980007CB10B4A1568CDE9025000238DF8043014
:107990000B60136004AB13E90700234604B030BC4E
:1079A000184704B030BC704714AC00202CAC002049
:1079B0001CAC0020DC2810B509D0DD2810D0C02870
:1079C00016D1FFF7D7FF0E4B0E4A1A6010BD0E4AB4
:1079D0000E4B19681368581C1060C022CA54F2E795
:1079E000094A0A4B19681368581C1060DB22F5E736
:1079F000064B054A196813685C1CC8541460E2E71A
:107A00001C800020257A0F0014AC00201CAC002044
:107A1000C02802BF014B024A1A6070471C80002038
:107A2000257A0F00C02810B409D0DB280BD0094BF1
:107A3000094A196813685C1CC854146006E05DF8B4
:107A4000044BFFF797BF054B054A1A605DF8044BDE
:107A5000704700BF1CAC002014AC00201C8000202C
:107A6000B5790F0007B501228DF807000DF1070168
:107A7000002002F057FDB0FA80F04009800003B00A
:107A80005DF804FB10B5064A064C12682368D05C0A
:107A9000FFF7E8FF10B923680133236010BD00BF72
:107AA00028AC002020AC002008B5C020FFF7DAFF8A
:107AB00028B9034B1B6813B9024B034A1A6008BD6F
:107AC00020AC002018800020857A0F0008B5DB204C
:107AD000FFF7C8FF10B9024B024A1A6008BD00BF89
:107AE00018800020E97A0F0010B50C4A0C4C12687F
:107AF0002368D35CC02B03D0DB2B0DD0042010BD3A
:107B0000DC20FFF7AFFF0028F8D12368054A0133D6
:107B10002360054B1A60F2E7DD20F2E728AC002075
:107B200020AC0020857A0F00188000207FB5174C0C
:107B3000174D184E002002F095FC20B322688AB140
:107B40002968336899420DD2012201A9002002F070
:107B500095FC08B9FF2001E09DF804000E4B1B685E
:107B60009847E7E70D4B1B686BB10292084A022168
:107B7000126803928DF8041004AA12E9070004B0F9
:107B8000BDE87040184704B070BD00BF1CAC0020B9
:107B900014AC002018AC00201C8000202CAC00206D
:107BA000014B1860002070472CAC0020034B1A7862
:107BB0000AB901221A700020704700BF30AC0020C3
:107BC000014B00201870704730AC00202DE9F04FB9
:107BD00085B000284ED0284F3B78012B06D0022BD1
:107BE0000CBF0420082005B0BDE8F08F234CDFF85F
:107BF0009C90234E234DDFF89880DFF898A0DFF8A3
:107C000098B0C9F8001000232360022330603B7055
:107C1000C5F800802268D9F800309A4214D3C5F81C
:107C20000080FFF741FF18BB174B1B6801223A7019
:107C3000F3B18DF80420326802922268039204AAFC
:107C400012E90700984713E0336822689A5CC02A5B
:107C500003D022689B5CDB2B04D12B68534508BF03
:107C6000C5F800B02B689847042801D01128D1D15D
:107C70000020B8E71020B6E730AC002020AC002090
:107C800028AC0020188000202CAC002024AC002060
:107C9000A97A0F00857A0F00CD7A0F00054B064AAE
:107CA0001860064B1960064B00201860054B1A60DF
:107CB000704700BF1CAC0020117A0F0018AC0020E8
:107CC00014AC00201C800020064B07481B68DB001A
:107CD000DBB20022037004215B4242708270C370E9
:107CE000FFF774BF70AC002031AC002010B52A4CF7
:107CF00002462378012B11D0022B1DD00BBB02BBF7
:107D00002648FFF757FC08B1FFF720FD244B1B68FE
:107D1000BBB1244ABDE8104010781847012A10D1A1
:107D2000214B1968214B06311868FFF74FFF08B146
:107D3000FFF70CFD02230CE0022A1AD0032A01D01F
:107D400052B110BD1A4A1368013303F007031360E0
:107D5000002323700022CCE7164B10481A6041F62E
:107D60007F21FFF7D7FB0028EBD0BDE81040FFF7DD
:107D7000EDBC104A1368052B0AD0013313600A4B7F
:107D800019680A4BBDE8104018680631FFF71EBF9E
:107D9000044B01221A70DBE780AC002040AC0020CD
:107DA0007CAC00203AAC002064AC002068AC002021
:107DB0006CAC00203CAC0020F0B585B004AB03E90E
:107DC00007009DF80400032878D8DFE800F00802D7
:107DD000AAAD012005B0BDE8F040FFF787BF039EC4
:107DE000534C032E40F28480029D6B7813F00F02F7
:107DF00069D00E2A7CD1042E59D02A78500656D547
:107E0000110654D51A44AB781A44EB781A4412F090
:107E1000FF024CD1B71E39462846FFF7DFFCEB5B6B
:107E2000834244D143492A780B6802F00702D8B252
:107E300082422FD1013303F007030B60FFF744FFA9
:107E40003D4B012230461A70FFF762FD08B1FFF783
:107E50007DFC37494FF41670FFF7F4FCB0B10428ED
:107E600010D136480521FFF719FF08B1FFF76EFC66
:107E7000334B1B68002B59D04FF0000005B0BDE814
:107E8000F04018470020FFF761FCEAE720684FF454
:107E90001671E8E720684FF41671FFF7FFFE08B18E
:107EA000FFF754FC05B0BDE8F040FFF70DBF2068B8
:107EB0004FF41671FFF7F2FE002837D005B0BDE889
:107EC000F040FFF743BC2A78A97813440B44E978C3
:107ED0000B44DBB263B91B4B1B68013383EAD2034B
:107EE00013F0070304D1184A03201370FFF7FEFEB6
:107EF00025681DB14FF416712846DBE70C494FF495
:107F00001670FFF79FFC18B920684FF41671D1E77F
:107F1000042802D109480521CCE72846FFF716FCC2
:107F2000F8E706480521C5E70320C7E705B0F0BD1F
:107F300074AC002070AC002060AC002035AC002098
:107F400078AC00206CAC00203AAC00200220FFF797
:107F5000CDBE0000074B10B5044618600648FFF779
:107F60001FFE08B1FFF7F2FB002C0CBF0E20002013
:107F700010BD00BF78AC0020B97D0F00184A194829
:107F8000002310B51360184A1360184A1360184A8A
:107F90001370184A1370184B184A01211960184BB6
:107FA0001960184B1970FFF7A3FA08B1032010BD30
:107FB000FFF732FC0028FAD1FFF7F8FD0028F6D1D0
:107FC000114C4FF416702146FFF73CFC0028EDD110
:107FD00020684FF41671BDE81040FFF75FBE00BF88
:107FE00068AC0020DCB60F0064AC00203CAC002084
:107FF00060AC002080AC002070AC00204D7F0F00F2
:108000006CAC00203AAC002074AC00200C4A08B5DF
:10801000002313600B4A1360FFF712FC08B1FFF74F
:1080200095FBFFF7CDFD08B1FFF790FB0648FFF782
:10803000C1FA042802D10020FFF788FB002008BD08
:108040007CAC002078AC002040AC002037B50D4659
:10805000044698B191B10A4B19780022019259B1A6
:1080600001A91A70FFF764FC019B063B2B80236873
:108070000433236003B030BD0420FBE70E20F9E792
:1080800060AC00200438FFF707BC18DF7047000021
:10809000F0B51D46154B87B018680F4659681B7A16
:1080A00003AC03C42370124B18685968114B00933A
:1080B00001AC03C42046164603F0ECF82146024604
:1080C000384603F0D9F801A803F0E4F801A9024604
:1080D000304603F0D1F8684603F0DCF86946024602
:1080E000284603F0C9F807B0F0BD00BF4DB60F0039
:1080F00056B60F00312E30000120704710B51C46D7
:108100000B781E2B06D000232022052102F050FC04
:10811000204610BD0024FBE7F8B5069F14460D4627
:108120003A46002118461E4603F06BF87CB14FF02A
:10813000E023D3F8F03DDB0700D500BE4FF0FF3061
:10814000F8BD284600F0FAF9013504F50074BC4288
:1081500006EB0401F5D32046F2E70000F8B5069FD0
:108160000D461E460024BC4206EB040101D3204606
:10817000F8BD054A284600F0AFFA0028F7D00135CF
:1081800004F50074EFE700BF84AC002030B5264D45
:108190002A7A8DB09AB107AC142200212046062518
:1081A00003F02FF88DF81C500B9B009394E80F0000
:1081B000FDF716F80620FCF74DFD0DB030BD2B681D
:1081C000002BFAD0194B197819B105201A70FCF759
:1081D00041FDD5E900329A42EFD307AC14220021C9
:1081E000204603F00EF86B7ADBB106234FF42042F1
:1081F0004FF474214FF460208DF81C3002F0D8FF4A
:108200000028D1D01022002103A802F0FAFF4FF479
:1082100060224FF4205303A8CDE90423FFF735FF74
:10822000C2E78DF81C30BFE784AC0020208000201E
:10823000024B0B604FF4007313807047090101007B
:108240000120704700487047E9800020044B054A30
:108250001878054B002818BF1A461046704700BF13
:1082600033AF0020878000203C8000202DE9FF41B3
:108270001F4B187028B11F4B6FF04C029A720022EE
:10828000DA721D4A1D4DDFF87CC017461C4BEE46C6
:1082900003F110066C4618685968F046A8E8030018
:1082A0000833B342C646F6D12B7803F00F031033E0
:1082B0006B4413F8103CD373114B18685968A646E9
:1082C000AEE803000833B3427446F6D115F8013B1B
:1082D00004A901EB1313654513F8103C9373A2F145
:1082E0000202D3D100233B7404B0BDE8F08100BF8B
:1082F00033AF0020E980002022AF00206000001092
:108300005EB60F006800001010B570B9134B14482A
:108310001968022202F0B0FF01230133DBB21148D9
:108320005B0043F44073038010BD052813D80B4B4A
:1083300053F82040204602F0ADFFC3B21F2B28BFE8
:108340001F23084A2046E1188842E6D010F8014B66
:1083500022F8024FF8E70020E6E700BF2480002063
:10836000A2AE0020A0AE00204DDF70474EDF704768
:108370004FDF704750DF704712DF704700F0BEBE1E
:10838000002000F029BD00001FB5244B402283F8D7
:10839000272300238DF807304FF4405304465A68D2
:1083A0001F4B9A4227D10DF10700FFF7E5FF9DF81B
:1083B000073003B30120FFF7D9FF0120FFF7D4FFF7
:1083C0000120FFF7D5FF02A8FFF7D4FF029BDA07D1
:1083D00002D5002000F092FE029B9B0702D50220EE
:1083E00000F08CFE2046FFF741FF00F027F802F076
:1083F0001BFE04B010BD002301A88DF80430FCF76B
:1084000073FC084B039303A8FCF796FCFCF79AFC5B
:108410004FF08043D3F838340293D7E700E100E00F
:10842000DBE5B1517D830F00012000F067BE012024
:10843000FCF710BC0220FCF70DBC00007FB52F49F3
:108440002F4802F0E6FE4FF440532E4A59689142FD
:108450004CD11A78102A46D9142A186944D95B6974
:10846000294CB3FBF4F50A2201A904FB153402F0F0
:108470009DFE2649224802F0CCFE01A9204802F0C8
:10848000C8FE23491E4802F0C4FE0A2201A928465C
:1084900002F08CFE01A91A4802F0BBFE1D491848E3
:1084A00002F0B7FE4FF47A760A2201A9B4FBF6F582
:1084B000284602F07BFE01A9114802F0AAFE1549E8
:1084C0000F4802F0A6FE0A2201A906FB154002F0A1
:1084D0006DFE01A90A4802F09CFE0F49084802F00F
:1084E00098FE04B070BD00200023B9E70B49044892
:1084F00004B0BDE8704002F08CBE00BF7AB60F0039
:10850000FB800020DBE5B15140420F0087B60F0031
:1085100085B60F0089B60F0094B60F008BB60F001A
:1085200010B503461C1AA24200DC10BD0C781CB129
:10853000013103F8014BF5E72024FAE72DE9F0417A
:108540000C4605464FF400720021204602F059FE09
:1085500065B95A493E22204602F08EFE552384F822
:10856000FE31AA2384F8FF31BDE8F081B5F5017F23
:1085700029D86B1EB3F5817F24BF6FF4817805EB9A
:1085800008034BB9F822227004F109012246FF20AA
:1085900002F8010F8A42FBD11B02002240F69360D1
:1085A000191FB1F5696F03F1010106D2834214BFAF
:1085B0008BB24FF6FF7324F812300132B2F5807F90
:1085C0000B46EDD1D0E7B5F5027F3BD86FF4017CC7
:1085D00065443DB920463A490B22FFF7A1FF282305
:1085E000E3722034374B2E014FF0000803EB0525D2
:1085F0002027022EB8D80B2229462046FFF790FFED
:108600005C232A226FF05A016374E3746376B31C0F
:1086100084F80D80A773E1732274A27484F8148027
:1086200084F81580A775E17522766383E86830B118
:1086300002F030FEE061013620341035D9E74FF406
:10864000E910F7E7204B9D428ED86FF40277EA19C4
:10865000012A0DD81B4B03EB0213DD68284602F0FC
:1086600019FE294602462046BDE8F04102F004BE4C
:108670006FF4FD76A9190902B1F5801FBFF474AF3C
:10868000124B236003F1144303F52C1303F602335A
:1086900063600F4BC4F8FC314FF46963A3614FF47E
:1086A0000053A5F20B254FF48072A360094B65615E
:1086B000E1602261E36104F12000D5E7E2B60F003A
:1086C0000DB70F0020B70F00080101005546320A10
:1086D000306FB10AB3009A23F7B5644B14460A68A9
:1086E0009A420D4608D103F114434A6803F52C134E
:1086F00003F602339A4203D04FF0FF3003B0F0BDCF
:10870000D1F8FC215A4B9A42F6D18B6823F4FF53DF
:1087100023F01E039B049B0CB3F5005FECD10B69A7
:10872000B3F5807FE8D1C86810F0FF06E4D1CB69CB
:10873000504A934205D0504A934243D04F4A934205
:10874000DAD1A0F58053B3F5692F07D201234FF496
:10875000807205F12001FBF797FE02E0B0F5805F23
:10876000CAD2AB695BB32268934207D041F263017E
:108770008B4200D80AB14FF0FF3323606B6941F29E
:10878000630293421BD803F0070204EBD3030121D9
:1087900091401A7B1142C8B204D161680243013191
:1087A0001A736160D4E900329A4208D30120FBF7C2
:1087B0004DFE637A1BB1A37A0BB9012323724FF4E8
:1087C00000709BE701276772CB68B3F1102F17D1B8
:1087D00004223431684602F04FFD042205F13801CD
:1087E0000DEB020002F048FD009BB3F5742F03D19E
:1087F000019BB3F57E2F01D027727DE7A772B0E70A
:10880000A3F57422B2F5204F28D2E27A01F12007B5
:10881000DAB91B4A934218D32B69B34215D9042203
:10882000B919684602F028FD009BD02B14D1042210
:10883000311D0DEB0200394402F01EFD0F4B019A71
:108840009A424FF001030ED1E372E8682A690123CE
:108850003946A0F5A0307EE70836DDE7B3F5805F46
:10886000FFF47FAF0123237246E700BF5546320A6B
:10887000306FB10A4028A5AD3C8263D6B3009A237D
:1088800000D80F004FF08053D3F83001082802D1F0
:10889000D3F8343123B9A0F10D0358425841704741
:1088A00001207047094B012283F8D8200260BFF3F2
:1088B0006F8FBFF34F8F064A904202D0043A904226
:1088C00002D1002283F8D820704700BF34AF0020C7
:1088D0005070024042DF704743DF704744DF70470B
:1088E00012DF704707B54FF4405300205A68084B19
:1088F0009A420AD18DF807000DF10700FFF7F0FF4B
:108900009DF80700003818BF012003B05DF804FB94
:10891000DBE5B15107B5FFF7E5FF58B1002301A82A
:108920000193FFF7DBFF0198003818BF012003B067
:108930005DF804FB4FF08043D3F80C0400F0011005
:10894000A0F1011358425841F1E7000010B5134B54
:10895000134A5B68C3F3080383B9EFF310836BB961
:1089600010494B681B0609D58024C1F8844092F851
:10897000D8308BB9FFF796FF4C6010BD92F8D83015
:1089800033B10146BDE810400748012201F071B83B
:10899000BDE81040FFF786BF4C60E6E700ED00E061
:1089A00034AF002000E100E04D890F000D4B18228C
:1089B00002FB0033598A1A8A521A998A92B28A4261
:1089C00028BF0A46D9681423434303F1804303F5C3
:1089D0001C33C3F80016C3F80426034B03EB8000D6
:1089E000FFF7B4BF34AF002004700240074BD3F848
:1089F000C024D10309D406490648D1F8C010C3F8F1
:108A0000A017C3F8A427FFF7A1BF7047007002406A
:108A100034AF002048700240082870B402D170BC06
:108A2000FFF7E4BF0F4D104A00F59473182141433E
:108A300052F823406B18A4B2DE889B8869589B1BB0
:108A40009BB2A34228BF2346142404FB0022C2F891
:108A50000017C2F80437054B70BC03EB8000FFF72A
:108A600075BF00BF34AF0020007002402870024084
:108A700070470000014B80225A60704700E100E01F
:108A8000024B8022C3F88420704700BF00E100E061
:108A9000074BD3F80014D3F800240A43C3F800248A
:108AA0000022C3F858214FF48002C3F80423704712
:108AB0000070024070B58878404D00F07F031822A6
:108AC0000C26C4095A4306FB04228E882A44C6F3A6
:108AD0000A061681CA7802F00302012A29D0012170
:108AE000374A01FA03F5D4B903F10C06B140C2F8D4
:108AF0000413D2F8141503F594732943C2F814151E
:108B000042F823402E4BC3F8180540F48070C3F898
:108B10000C05BFF36F8FBFF34F8F012013E00233BB
:108B20009940C2F80413D2F810352B43C2F810351F
:108B3000E8E7082B08D04FF0E023D3F8F03DDB073F
:108B400000D500BE002070BD1D4BDCB9B5F8D420A7
:108B500012B18022C3F81C250022C3F85021D3F89B
:108B6000002312F4001208BFC3F85421144B4FF431
:108B70004012C3F80423D3F8142542F48072C3F8DA
:108B80001425BFE70022C3F82C21B5F8C82012B184
:108B90008022C3F81C25D3F8002312F4001208BF6A
:108BA000C3F85421064B074AC3F80423D3F8102511
:108BB00042F48072C3F81025A4E700BF34AF002050
:108BC00000700240000820001D4B2DE9F04180227A
:108BD00001241C4DDFF87880C3F88420274604F177
:108BE0000C03A21C07FA02F207FA03F31343C5F8B9
:108BF0000833A30003F1804303F51C330026182239
:108C00005E6002FB04809E623146013402F0F9FA94
:108C1000082CE4D10C4BC5F808331822C5F81C65A4
:108C20000A486E623146AE6402F0EBFA044BC5F8B6
:108C300014758022C5F810755A60BDE8F08100BF38
:108C400000E100E00070024000083000F4AF0020B6
:108C500034AF0020F7B51F4601F07F0018231F4CEA
:108C6000CD090E4643430C2101FB053104EB010CF9
:108C700062500022ACF80470ACF8062020BBF7B9B3
:108C8000174BD3F88034C3F3C0139D4217D0154857
:108C9000FFF75CFE144B5B68C3F30803003B18BF8F
:108CA000012300933A463B463146384600F0CAFE5F
:108CB000012003B0F0BD0D48FFF748FEF8E7002D96
:108CC000F9D0FFF773FEF3E7002DFAD11C44A37A25
:108CD000002BEDD0A572FFF79FFEE9E734AF00202F
:108CE000007002405070024000ED00E04C70024005
:108CF00011F07F0008B507D10D4B01225A65BFF373
:108D00006F8FBFF34F8F08BD0828F8D0084B41F490
:108D10008072C909C3F81825F1D1064B182202FB4D
:108D200000339A7A002AEAD09972FFF775FEE6E7D7
:108D30000070024034AF002011F0770F12D00A4BC0
:108D400041F48072C3F80C15C3F80C25CA09C3F8A6
:108D5000181504BF01F5947143F82120BFF36F8FFC
:108D6000BFF34F8F704700BF0070024008B5174B2C
:108D700001220021C3F81425C3F810250A468B00F0
:108D800003F1804303F51C33013108295A609A62CC
:108D9000F5D10E4B0E485A629A64C3F85821D3F8A5
:108DA0000014D3F800240A43C3F80024D3F80023A6
:108DB000C3F80823074AC3F804230021DC2202F089
:108DC00020FA034A40239382138108BD00700240B9
:108DD00034AF00200514C0012DE9F04FB34BB44A65
:108DE000D3F80013002385B01C4601201D4621FA4C
:108DF00003F6F6070BD552F8236046B100FA03F6E6
:108E0000344342F82350BFF36F8FBFF34F8F0133CA
:108E1000192BECD1E20706D5FFF7A8FF00210122AC
:108E2000084600F0E0FD14F4006FA24D08D09F4BFF
:108E3000D3F8A8369BB2A5F8D230012385F8D730F5
:108E4000A30221D5994ED6F8143513F4807302D0BD
:108E5000FFF7CCFD0123D6F81025D70540F11A8184
:108E600095F8D7305BB1B5F8D2200023012185F801
:108E7000D73092B200911846882100F0E3FD01221C
:108E80000321002000F09CFD600228D5874BD3F819
:108E9000006406F4E062F105C3F8002406D501225F
:108EA000C3F82C250421002000F08AFD72050FD59F
:108EB0007E4B0122C3F808259A65D3F8002312F4EB
:108EC000001208BFC3F854214FF40012C3F8042362
:108ED000B30504D501220521002000F071FD270211
:108EE0002BD5724BD3F88014C9B28DF80810D3F883
:108EF0008424D2B28DF80920D3F888048DF80A00B2
:108F0000D3F88C048DF80B00D3F890048DF80C0086
:108F1000D3F894048DF80D00D3F898048DF80E0062
:108F2000D3F89C348DF80F304E0601D1052A04D0B9
:108F3000012202A9002000F06CFD5F4B23405BB1D1
:108F400095F8D830002B40F0AD804FF0E023D3F8F7
:108F5000F03DD80700D500BEDFF85891DFF84CB1DE
:108F60004F4600264FF0140A4FF0180806F10C0384
:108F700024FA03F3D90720D50AFB06B33A68D3F8DD
:108F8000083708FB065152FA83F23A60CA88DBB20E
:108F900013FA82F292B2082ECA8000F093803A89C6
:108FA0009A4240F08F80CB88BA889BB29A4240F2B6
:108FB000898016B94148FFF7C9FC0136092E07F12F
:108FC0001807D3D13E4B2340002B60D0374BD3F84A
